:020000040800F2
:10000000002800201D1A0008611700086917000861
:100010007117000879170008811700080000000018
:100020000000000000000000000000008917000828
:100030009517000800000000A1170008AD17000880
:10004000651A0008651A0008651A0008651A000894
:10005000651A0008651A0008651A0008651A000884
:10006000651A0008651A0008651A0008651A000874
:10007000651A0008651A0008651A0008651A000864
:10008000651A0008651A0008651A0008651A000854
:10009000651A0008651A0008651A0008651A000844
:1000A000651A0008651A0008651A0008651A000834
:1000B000B9170008651A000800000000651A00085A
:1000C000651A00080000000000000000651A000822
:1000D00000000000651A0008651A00080000000012
:1000E000651A0008651A0008651A0008000000007B
:1000F0000000000000000000000000000000000000
:0C01000000000000000000005FF808F1A3
:10010C0010B5054C237833B9044B13B10448AFF345
:10011C0000800123237010BDB800002000000000F7
:10012C00D832000808B5034B1BB103490348AFF3A1
:10013C00008008BD00000000BC000020D832000880
:10014C0080B582B000AF78607B68032B00F24D84E1
:10015C0001A252F823F000BF7501000881030008CA
:10016C00AD050008D9070008C54B1B68002BC0F271
:10017C003E84C34B1B68032B00F33984C04B1B68B4
:10018C00C04A52F82330092B00F2EF8001A252F83A
:10019C0023F000BFC9010008F50100082102000886
:1001AC004D02000879020008A5020008D1020008DF
:1001BC00FD020008290300084B03000800228021DF
:1001CC00B14801F04EFF01224FF4E061AE4801F05E
:1001DC0048FF01224021AC4801F043FF00223F219F
:1001EC00A94801F03EFFC1E000228021A64801F0A1
:1001FC0038FF01224FF4E061A34801F032FF0122E5
:10020C007921A14801F02DFF002206219E4801F022
:10021C0028FFABE0002280219B4801F022FF012245
:10022C004FF4E061984801F01CFF0122242196480C
:10023C0001F017FF00225B21934801F012FF95E0BB
:10024C0000228021904801F00CFF01224FF4E06164
:10025C008D4801F006FF012230218B4801F001FF8F
:10026C0000224F21884801F0FCFE7FE00022802113
:10027C00854801F0F6FE01224FF4E061824801F05E
:10028C00F0FE01221921804801F0EBFE00226621CC
:10029C007D4801F0E6FE69E0002280217A4801F0F9
:1002AC00E0FE01224FF4E061774801F0DAFE012212
:1002BC001221754801F0D5FE00226D21724801F023
:1002CC00D0FE53E0002280216F4801F0CAFE0122CB
:1002DC004FF4E0616C4801F0C4FE012202216A482F
:1002EC0001F0BFFE00227D21674801F0BAFE3DE01F
:1002FC0000228021644801F0B4FE01224FF4E06139
:10030C00614801F0AEFE012278215F4801F0A9FEA0
:10031C00002207215C4801F0A4FE27E00022802186
:10032C00594801F09EFE01224FF4E061564801F05D
:10033C0098FE00227F21544801F093FE16E0002223
:10034C008021514801F08DFE01224FF4E0614E48AE
:10035C0001F087FE012210214B4801F082FE0022A1
:10036C006F21494801F07DFE00E000BF444B0122A3
:10037C001A603CE3424B1B68002BC0F23A83404BA3
:10038C001B68032B00F335833D4B1B683D4A52F829
:10039C002330092B00F2FF8001A252F823F000BF9A
:1003AC00D503000803040008310400085F040008AA
:1003BC0099040008C7040008F50400082305000888
:1003CC00510500087505000800224FF480712E4875
:1003DC0001F047FE01224FF4D0612B4801F041FEA1
:1003EC0001224021284801F03CFE00223F212648F2
:1003FC0001F037FED0E000224FF48071224801F06A
:10040C0030FE01224FF4D0611F4801F02AFE012278
:10041C0079211D4801F025FE002206211A4801F021
:10042C0020FEB9E000224FF48071174801F019FE4C
:10043C0001224FF4D061144801F013FE0122242153
:10044C00114801F00EFE00225B210F4801F009FE5D
:10045C00A2E000224FF480710B4801F002FE012251
:10046C004FF4D061084801F0FCFD01223021064810
:10047C0001F0F7FD00224F21034801F0F2FD8BE063
:10048C00E4000020D4000020000C014000224FF4B6
:10049C008071CB4801F0E5FD01224FF4D061C848D2
:1004AC0001F0DFFD01221921C54801F0DAFD00221F
:1004BC006621C34801F0D5FD6EE000224FF4807137
:1004CC00BF4801F0CEFD01224FF4D061BC4801F0D1
:1004DC00C8FD01221221BA4801F0C3FD00226D2192
:1004EC00B74801F0BEFD57E000224FF48071B448CC
:1004FC0001F0B7FD01224FF4D061B14801F0B1FD1C
:10050C0001220221AE4801F0ACFD00227D21AC4855
:10051C0001F0A7FD40E000224FF48071A84801F0E3
:10052C00A0FD01224FF4D061A54801F09AFD0122F3
:10053C007821A34801F095FD00220721A04801F085
:10054C0090FD29E000224FF480719D4801F089FD57
:10055C0001224FF4D0619A4801F083FD00227F21E3
:10056C00974801F07EFD17E000224FF4807194480B
:10057C0001F077FD01224FF4D061914801F071FD3B
:10058C00012210218E4801F06CFD00226F218C4855
:10059C0001F067FD00E000BF8A4B02221A6028E2DE
:1005AC00884B1B68002BC0F22682864B1B68032BE2
:1005BC0000F32182834B1B68834A52F82330092BAA
:1005CC0000F2F98001A252F823F000BF01060008E6
:1005DC002F0600085D0600088B060008B906000807
:1005EC00E706000815070008430700087107000814
:1005FC009507000800224FF40071714801F031FD9D
:10060C0001224FF4B0616E4801F02BFD0122402114
:10061C006B4801F026FD00223F21694801F021FDC5
:10062C00CAE000224FF40071654801F01AFD012266
:10063C004FF4B061624801F014FD01227921604849
:10064C0001F00FFD002206215D4801F00AFDB3E028
:10065C0000224FF400715A4801F003FD01224FF4BF
:10066C00B061574801F0FDFC01222421544801F0EF
:10067C00F8FC00225B21524801F0F3FC9CE00022C4
:10068C004FF400714E4801F0ECFC01224FF4B061C4
:10069C004B4801F0E6FC01223021494801F0E1FC15
:1006AC0000224F21464801F0DCFC85E000224FF48B
:1006BC000071434801F0D5FC01224FF4B061404871
:1006CC0001F0CFFC012219213D4801F0CAFC0022A7
:1006DC0066213B4801F0C5FC6EE000224FF400712E
:1006EC00374801F0BEFC01224FF4B061344801F0F0
:1006FC00B8FC01221221324801F0B3FC00226D211A
:10070C002F4801F0AEFC57E000224FF400712C484A
:10071C0001F0A7FC01224FF4B061294801F0A1FCC3
:10072C0001220221264801F09CFC00227D21244854
:10073C0001F097FC40E000224FF40071204801F0DA
:10074C0090FC01224FF4B0611D4801F08AFC01229B
:10075C0078211B4801F085FC00220721184801F084
:10076C0080FC29E000224FF40071154801F079FC5F
:10077C0001224FF4B061124801F073FC00227F217A
:10078C000F4801F06EFC17E000224FF400710C488A
:10079C0001F067FC01224FF4B061094801F061FCE3
:1007AC0001221021064801F05CFC00226F21044854
:1007BC0001F057FC00E000BF024B03221A601AE163
:1007CC00000C0140E4000020D40000208C4B1B687E
:1007DC00002BC0F20A818A4B1B68032B00F30581A6
:1007EC00874B1B68874A52F82330092B00F2F9809B
:1007FC0001A252F823F000BF2D0800085B08000886
:10080C0089080008B7080008E50800081309000863
:10081C00410900086F0900089D090008C10900087A
:10082C0000224FF48061784801F01BFC01224FF448
:10083C006071754801F015FC01224021724801F0ED
:10084C0010FC00223F21704801F00BFCCAE0002292
:10085C004FF480616C4801F004FC01224FF460718C
:10086C00694801F0FEFB01227921674801F0F9FB90
:10087C0000220621644801F0F4FBB3E000224FF49F
:10088C008061614801F0EDFB01224FF460715E481C
:10089C0001F0E7FB012224215B4801F0E2FB00227E
:1008AC005B21594801F0DDFB9CE000224FF4806194
:1008BC00554801F0D6FB01224FF46071524801F00B
:1008CC00D0FB01223021504801F0CBFB00224F21FC
:1008DC004D4801F0C6FB85E000224FF480614A4888
:1008EC0001F0BFFB01224FF46071474801F0B9FBE6
:1008FC0001221921444801F0B4FB00226621424830
:10090C0001F0AFFB6EE000224FF480613E4801F035
:10091C00A8FB01224FF460713B4801F0A2FB0122BD
:10092C001221394801F09DFB00226D21364801F05F
:10093C0098FB57E000224FF48061334801F091FBA3
:10094C0001224FF46071304801F08BFB012202212F
:10095C002D4801F086FB00227D212B4801F081FB04
:10096C0040E000224FF48061274801F07AFB01221D
:10097C004FF46071244801F074FB01227821224865
:10098C0001F06FFB002207211F4801F06AFB29E0F0
:10099C0000224FF480611C4801F063FB01224FF4EC
:1009AC006071194801F05DFB00227F21164801F0AF
:1009BC0058FB17E000224FF48061134801F051FB03
:1009CC0001224FF46071104801F04BFB0122102101
:1009DC000D4801F046FB00226F210B4801F041FB52
:1009EC0000E000BF064B00221A6000BF04E000BF0D
:1009FC0002E000BF00E000BF00BF0837BD4680BD6D
:100A0C00E4000020D4000020000C014080B483B02E
:100A1C0000AF78607B680D4A82FB03129210DB17E3
:100A2C00D31A0B4A13607968084B83FB01239A1085
:100A3C00CB17D21A13469B0013445B00CA1A044B03
:100A4C005A6000BF0C37BD4680BC7047676666664F
:100A5C00D400002080B483B000AF78607B680D4A6E
:100A6C0082FB03129210DB17D31A0B4A936079683E
:100A7C00084B83FB01239A10CB17D21A13469B0009
:100A8C0013445B00CA1A044BDA6000BF0C37BD4636
:100A9C0080BC704767666666D400002080B500AFE6
:100AAC00124B1B68002B1ED001228021104801F034
:100ABC00D8FA01224FF480710D4801F0D2FA0122CC
:100ACC004FF400710A4801F0CCFA01224FF4806116
:100ADC00074801F0C6FA074B1B681846FFF730FBB6
:100AEC00642000F011FF00BF80BD00BF5C0000203F
:100AFC00000C0140E400002080B500AF084B1B68DF
:100B0C00012B0BD14FF4FA7000F096FE044B00222F
:100B1C001A604FF48051034801F0BBFA00BF80BD4E
:100B2C004C000020000C014080B500AF134B00229C
:100B3C001A70134B1B68134A1360114B5B68124AF3
:100B4C0013600F4B9B68114A1360114B02221A70F1
:100B5C000B4B1B680F4A1360094B5B680E4A136002
:100B6C00074B9B680D4A136000F01EF90C4B0122D9
:100B7C001A600C4B01221A6000BF80BDE8000020F7
:100B8C00100000201C000020200000202400002069
:100B9C0000000020280000202C0000203000002045
:100BAC00500000205400002080B500AF734B1B7820
:100BBC00022B27D0022B6CDC002B02D0012B42D055
:100BCC0067E06F4B1B68002B5ED000F0E9FC6D4BAF
:100BDC001B681846FFF73EFF6A4B1B68013B694ACE
:100BEC001360684B1B68002B07DA644B02221A70E7
:100BFC00654B1B68634A136046E04FF47A7000F053
:100C0C0035FE41E05E4B1B68002B3FD000F0F4FC3E
:100C1C005E4B1B681846FFF71DFF5C4B1B68013BC6
:100C2C005A4A1360594B1B68002B07DA534B0122AD
:100C3C001A70554B9B68554A136027E04FF47A7035
:100C4C0000F014FE22E04E4B1B68002B20D000F06D
:100C5C00BDFC4F4B1B681846FFF7FCFE4C4B1B684A
:100C6C00013B4B4A13604A4B1B68002B07DA434B82
:100C7C0000221A70444B5B68454A136008E04FF43D
:100C8C007A7000F0F3FD03E000BF02E000BF00E06B
:100C9C0000BF404B1B78022B27D0022B6CDC002BA7
:100CAC0002D0012B42D067E03B4B1B68002B5ED07F
:100CBC0000F0B8FC394B1B681846FFF7A7FE374B02
:100CCC001B68013B354A1360344B1B68002B07DA59
:100CDC00304B02221A702C4B1B68304A136046E0D2
:100CEC004FF47A7000F0DCFD41E02B4B1B68002BBD
:100CFC003FD000F0C3FC2A4B1B681846FFF786FE5A
:100D0C00274B1B68013B264A1360254B1B68002BA5
:100D1C0007DA204B01221A701B4B9B68204A136088
:100D2C0027E04FF47A7000F0BBFD22E01A4B1B68F1
:100D3C00002B20D000F08CFC1A4B1B681846FFF7D8
:100D4C0065FE184B1B68013B164A1360154B1B685C
:100D5C00002B07DA0F4B00221A700B4B5B68114A01
:100D6C00136008E04FF47A7000F09AFD03E000BFC6
:100D7C0002E000BF00E000BF00BF80BDE800002023
:100D8C00500000201C000020100000202400002037
:100D9C00200000200000002054000020280000202B
:100DAC00300000202C00002080B500AF0122022171
:100DBC000E4801F056F9012204210C4801F051F9BA
:100DCC0001220821094801F04CF9012210210748A1
:100DDC0001F047F901224021044801F042F90122B7
:100DEC002021024801F03DF900BF80BD0008014000
:100DFC0080B582B000AF0346FB711D4B1B68012B05
:100E0C0031D1FB79022B13D0022B2BDC002B02D01F
:100E1C00012B1AD026E00221164801F03AF91021D4
:100E2C00144801F036F94FF4FA7000F053FD1AE053
:100E3C000821104801F02DF940210E4801F029F944
:100E4C004FF4FA7000F046FD0DE00421094801F062
:100E5C0020F92021074801F01CF94FF4FA7000F03A
:100E6C0039FD00E000BF00BF0837BD4680BD00BFA4
:100E7C00580000200008014080B584B000AF7860B5
:100E8C00FFF792FF0023FB6007E0114AFB6800218B
:100E9C0042F82310FB680133FB60FB68022BF4DD86
:100EAC000C4A7B6852F823200B497B6841F82320BD
:100EBC007B6802331846FFF7A9FD074A7B6852F896
:100ECC0023301846FFF7C6FD00BF1037BD4680BD66
:100EDC00EC000020100000200400002080B500AFC2
:100EEC00FFF7DCFDFFF708FE2E4B1B78032B56D8C3
:100EFC0001A252F823F000BF150F0008350F0008AF
:100F0C005D0F0008850F0008002000F0D9F803469B
:100F1C00002B06D0234B01221A700020FFF7ACFFE8
:100F2C003DE0FFF741FE3AE0002000F0C9F803462F
:100F3C00002B06D01B4B02221A700120FFF79CFFDE
:100F4C002DE00020FFF754FF002000F02DF826E0E4
:100F5C00002000F0B5F80346002B06D0114B0322FD
:100F6C001A700220FFF788FF19E00120FFF740FFFD
:100F7C00012000F019F812E0002000F0A1F803465F
:100F8C00002B05D0074B00221A70FFF7CDFD05E0B2
:100F9C000220FFF72DFF022000F006F800BF00BF73
:100FAC0080BD00BFE900002080B582B000AF0346D1
:100FBC00FB71012000F084F80346002B1AD0FB795A
:100FCC00154A52F82330632B05D1FB79124A0121C3
:100FDC0042F8231007E0FB790F4A52F82320013224
:100FEC000D4941F82320FB790B4A52F8233018465F
:100FFC00FFF730FD022000F063F80346002B07D00A
:10100C00FA79FB79044951F82220044941F823204C
:10101C0000BF0837BD4680BD040000201000002032
:10102C0080B582B000AF00237B603AE0214A7B6838
:10103C0013441B78002B15D0012B2FD17B68DBB20E
:10104C00184600F09DF80346002B24D000224FF4E4
:10105C000051194801F005F8164A7B681344002228
:10106C001A7018E07B68DBB2184600F089F803466A
:10107C00002B12D101224FF400510F4800F0F1FF68
:10108C000C4A7B68134401221A700C4A7B680121BC
:10109C0042F8231001E000BF00E000BF7B68013381
:1010AC007B607B68022BC1DD00BF00BF0837BD46EB
:1010BC0080BD00BF34000020000C0140EC0000207B
:1010CC0080B483B000AF7860094A7B6852F8233053
:1010DC00002B06D0064A7B68002142F8231001231E
:1010EC0000E0002318460C37BD4680BC704700BF9B
:1010FC00EC00002080B582B000AF00237B602FE0B5
:10110C001B4A7B68134419781A4A7B6813440A46B5
:10111C001A704FF480727B6802FA03F39BB2194683
:10112C00154800F087FF03461946114A7B681344A3
:10113C000A461A700E4A7B6813441A780D497B686C
:10114C000B441B789A4208D1094A7B6813441978DE
:10115C000A4A7B6813440A461A707B6801337B6029
:10116C007B68022BCCDD00BF00BF0837BD4680BDBD
:10117C003C00002040000020000801403800002006
:10118C0080B483B000AF0346FB71FB79022B01D90D
:10119C00002307E0FB79064AD35C002B0CBF01232C
:1011AC000023DBB218460C37BD4680BC704700BF2D
:1011BC003800002080B500AF00F050FC00F036F88D
:1011CC0000F0BCF800F06EF8124801F0A9FB012207
:1011DC004FF48051104800F044FF01224FF40051AD
:1011EC000D4800F03EFF0A2201210C4800F018F9CE
:1011FC000A2201210A4800F013F90A2201210948A8
:10120C0000F00EF90A220121074800F009F900F05C
:10121C0043F9FCE7F8000020000C014049190008D4
:10122C00011100082D100008E90E000880B590B0DF
:10123C0000AF07F1180328220021184601F0BAFF6D
:10124C003B1D00221A605A609A60DA601A61022310
:10125C00BB610123BB621023FB6200237B6307F19C
:10126C001803184600F02EFF0346002B01D000F0A7
:10127C00D1F80F237B600023BB600023FB600023AD
:10128C003B6100237B613B1D0021184601F09CF95A
:10129C000346002B01D000F0BDF800BF4037BD461F
:1012AC0080BD000080B586B000AF07F108030022B6
:1012BC001A605A609A60DA603B4600221A605A60E3
:1012CC001D4B4FF080421A601B4B41F63F725A6027
:1012DC00194B00229A60184B0922DA60164B002237
:1012EC001A61154B00229A61134801F0C9FA0346A2
:1012FC00002B01D000F08EF84FF48053BB6007F147
:10130C00080319460C4801F047FC0346002B01D09A
:10131C0000F080F800233B6000237B603B461946BD
:10132C00054801F01FFE0346002B01D000F072F8B7
:10133C0000BF1837BD4680BDF800002080B586B0D0
:10134C0000AF07F1080300221A605A609A60DA6055
:10135C00284B9B69274A43F004039361254B9B69F7
:10136C0003F004037B607B68224B9B69214A43F0AA
:10137C00080393611F4B9B6903F008033B603B68B8
:10138C0000227E211C4800F06CFE002243F2FF710B
:10139C001A4800F066FE7E23BB600123FB6000232D
:1013AC003B6102237B6107F108031946124800F0E8
:1013BC00C5FC43F2FF73BB600123FB6000233B6160
:1013CC0002237B6107F1080319460C4800F0B6FCB8
:1013DC004FF4E063BB600023FB6001233B6107F12A
:1013EC0008031946044800F0A9FC00BF1837BD4695
:1013FC0080BD00BF0010024000080140000C0140FD
:10140C0080B582B000AF786000F038F800BF0837C4
:10141C00BD4680BD80B400AF72B600BF00BFFDE713
:10142C0080B586B000AFF860B9607A60142001F026
:10143C0003FE03467B617B69002B17D07B69FA683E
:10144C001A607B69BA685A607B680A4AA2FB03235C
:10145C00DA087B699A607B6900221A73064B1A685A
:10146C007B691A61044A7B69136000E000BF18377E
:10147C00BD4680BDCDCCCCCC4001002080B400AFAB
:10148C00044B1B680133034A136000BFBD4680BC8C
:10149C00704700BF4401002080B584B000AF204BE2
:1014AC001B68FB600023BB6032E0FB685A681D4B75
:1014BC001B689A4210D8FB681B7B0133DAB2FB68BD
:1014CC001A73FB689B68002B06D0FB689A68154B57
:1014DC001B681A44FB685A60FB681B7B002B12D0FC
:1014EC00FB681B689847FB681B7B013BDAB2FB6807
:1014FC001A73FB689B68002B05D1FB687B607868CE
:10150C0000F012F804E0FB68BB60FB681B69FB6031
:10151C00FB68002BC9D100BF00BF1037BD4680BD92
:10152C00400100204401002080B584B000AF7860F9
:10153C001A4B1B68002B2DD07B68002B2AD0174B25
:10154C001B687A689A4208D1144B1B681B69134AB2
:10155C001360786801F078FD1DE0104B1B68FB6090
:10156C0002E0FB681B69FB60FB681B69002B04D065
:10157C00FB681B697A689A42F3D1FB681B697A682D
:10158C009A4208D17B681A69FB681A61786801F085
:10159C005BFD00E000BF1037BD4680BD4001002060
:1015AC0080B500AF00220221074800F05AFD01224D
:1015BC000421054800F055FD01220821024800F0E5
:1015CC0050FD00BF80BD00BF0008014080B500AFDA
:1015DC0001220221074800F044FD012208210548A0
:1015EC0000F03FFD00220421024800F03AFD00BF4C
:1015FC0080BD00BF0008014080B500AF0122022170
:10160C00074800F02EFD00220821054800F029FDB6
:10161C0001220421024800F024FD00BF80BD00BF60
:10162C000008014080B500AF00221021074800F0EF
:10163C0018FD01222021054800F013FD0122402154
:10164C00024800F00EFD00BF80BD00BF0008014045
:10165C0080B500AF01221021074800F002FD0122E5
:10166C004021054800F0FDFC00222021024800F03A
:10167C00F8FC00BF80BD00BF0008014080B500AF82
:10168C0001221021074800F0ECFC00224021054803
:10169C0000F0E7FC01222021024800F0E2FC00BF30
:1016AC0080BD00BF0008014080B485B000AF154B71
:1016BC009B69144A43F001039361124B9B6903F03D
:1016CC000103BB60BB680F4BDB690E4A43F08053D0
:1016DC00D3610C4BDB6903F080537B607B680A4B56
:1016EC005B68FB60FB6823F0E063FB60FB6843F026
:1016FC008063FB60044AFB68536000BF1437BD462F
:10170C0080BC7047001002400000014080B584B0DE
:10171C0000AF78607B681B68B3F1804F13D10C4B22
:10172C00DB690B4A43F00103D361094BDB6903F01E
:10173C000103FB60FB68002200211C2000F0C7FAAB
:10174C001C2000F0E0FA00BF1037BD4680BD00BF82
:10175C000010024080B400AF00BFFDE780B400AFC2
:10176C0000BFFDE780B400AF00BFFDE780B400AF61
:10177C0000BFFDE780B400AF00BFFDE780B400AF51
:10178C0000BFBD4680BC704780B400AF00BFBD46F3
:10179C0080BC704780B400AF00BFBD4680BC7047B2
:1017AC0080B500AF00F0A0F900BF80BD80B500AFE0
:1017BC00024801F001F900BF80BD00BFF800002015
:1017CC0080B586B000AF7860144A154BD31A7B6194
:1017DC007B693B61134B1B68002B02D1114B124AE6
:1017EC001A60104B1A687B6813443A699A4207D204
:1017FC0001F0F8FC03460C221A604FF0FF3309E0AD
:10180C00084B1B68FB60074B1A687B681344054A3E
:10181C001360FB6818461837BD4680BD00280020B1
:10182C000004000048010020B002002080B400AF8A
:10183C0000BFBD4680BC704780B483B000AF7860F9
:10184C00074B1B687A6892FBF3F3064A1360064B4E
:10185C0000221A6000BF0C37BD4680BC704700BF29
:10186C00480000204C0100204C00002080B483B0C4
:10187C0000AF7860074B1B687A6892FBF3F3064A5B
:10188C001360064B00221A6000BF0C37BD4680BCAB
:10189C00704700BF4800002050010020500000207D
:1018AC0080B483B000AF7860074B1B687A6892FBFA
:1018BC00F3F3064A1360064B00221A6000BF0C3784
:1018CC00BD4680BC704700BF48000020540100207A
:1018DC005400002080B483B000AF7860074B1B68C5
:1018EC007A6892FBF3F3064A1360064B00221A60E7
:1018FC0000BF0C37BD4680BC704700BF48000020BD
:10190C00580100205800002080B483B000AF7860EC
:10191C00074B1B687A6892FBF3F3064A1360064B7D
:10192C0000221A6000BF0C37BD4680BC704700BF58
:10193C00480000205C0100205C00002080B400AF57
:10194C00294B1B68002B0BDD274B1B68013B264AE0
:10195C001360254B1B68002B02D1244B01221A600B
:10196C00234B1B68002B0BDD214B1B68013B204AD2
:10197C0013601F4B1B68002B02D11E4B01221A60F7
:10198C001D4B1B68002B0BDD1B4B1B68013B1A4AC4
:10199C001360194B1B68002B02D1184B01221A60E3
:1019AC00174B1B68002B0BDD154B1B68013B144AB6
:1019BC001360134B1B68002B02D1124B01221A60CF
:1019CC00114B1B68002B0BDD0F4B1B68013B0E4AA8
:1019DC0013600D4B1B68002B02D10C4B01221A60BB
:1019EC0000BFBD4680BC70474C0100204C0000205D
:1019FC005001002050000020540100205400002011
:101A0C0058010020580000205C0100205C000020E0
:101A1C000C480D490D4A002302E0D458C45004333D
:101A2C00C4188C42F9D30A4A0A4C002301E0136013
:101A3C000432A242FBD3FFF7F9FE01F0D9FBFFF70A
:101A4C00B9FB704700000020B80000201C330008D0
:101A5C00B8000020AC020020FEE7000080B500AF0B
:101A6C00084B1B68074A43F010031360032000F077
:101A7C0023F90F2000F008F8FFF716FE0023184694
:101A8C0080BD00BF0020024080B582B000AF7860FE
:101A9C00124B1A68124B1B7819464FF47A73B3FB2E
:101AAC00F1F3B2FBF3F3184600F03BF90346002BBD
:101ABC0001D001230EE07B680F2B0AD80022796835
:101ACC004FF0FF3000F003F9064A7B6813600023E7
:101ADC0000E0012318460837BD4680BD44000020B5
:101AEC00640000206000002080B400AF054B1B7820
:101AFC001A46054B1B681344034A136000BFBD46CE
:101B0C0080BC7047640000206001002080B400AFEE
:101B1C00024B1B681846BD4680BC70476001002014
:101B2C0080B485B000AF78607B6803F00703FB607E
:101B3C000C4BDB68BB60BA684FF6FF031340BB600D
:101B4C00FB681A02BB68134343F0BF6343F40033D2
:101B5C00BB60044ABB68D36000BF1437BD4680BC71
:101B6C00704700BF00ED00E080B400AF044BDB68B1
:101B7C001B0A03F007031846BD4680BC704700BF24
:101B8C0000ED00E080B483B000AF0346FB7197F921
:101B9C000730002B0BDBFB7903F01F02064997F98A
:101BAC0007305B09012000FA02F241F8232000BF44
:101BBC000C37BD4680BC704700E100E080B483B0B8
:101BCC0000AF03463960FB7197F90730002B0ADB35
:101BDC003B68DAB20C4997F907301201D2B20B44C8
:101BEC0083F800230AE03B68DAB20849FB7903F07A
:101BFC000F03043B1201D2B20B441A7600BF0C3710
:101C0C00BD4680BC704700BF00E100E000ED00E085
:101C1C0080B489B000AFF860B9607A60FB6803F0FB
:101C2C000703FB61FB69C3F10703042B28BF0423E3
:101C3C00BB61FB690433062B02D9FB69033B00E053
:101C4C0000237B614FF0FF32BB6902FA03F3DA43E6
:101C5C00BB681A407B699A404FF0FF317B6901FAEF
:101C6C0003F3D9437B680B40134318462437BD4616
:101C7C0080BC704780B582B000AF78607B68013B58
:101C8C00B3F1807F01D301230FE00A4A7B68013B4B
:101C9C0053600F214FF0FF30FFF790FF054B0022F0
:101CAC009A60044B07221A60002318460837BD4679
:101CBC0080BD00BF10E000E080B582B000AF78605E
:101CCC007868FFF72DFF00BF0837BD4680BD80B593
:101CDC0086B000AF0346B9607A60FB7300237B616A
:101CEC00FFF742FF78617A68B9687869FFF790FF6F
:101CFC00024697F90F3011461846FFF75FFF00BFF9
:101D0C001837BD4680BD80B582B000AF0346FB716D
:101D1C0097F907301846FFF735FF00BF0837BD4667
:101D2C0080BD80B582B000AF78607868FFF7A2FF05
:101D3C00034618460837BD4680BD000080B48BB002
:101D4C0000AF7860396000237B6200233B6261E165
:101D5C0001227B6A02FA03F3FB613B681B68FA6998
:101D6C001340BB61BA69FB699A4240F050813B68F1
:101D7C005B68974A93425ED0954A934275D8954AD0
:101D8C00934258D0934A93426FD8934A934252D07D
:101D9C00914A934269D8914A93424CD08F4A9342CC
:101DAC0063D88F4A934246D08D4A93425DD8122B0A
:101DBC002AD8122B59D801A252F823F0431E00083E
:101DCC001D1E00082F1E0008711E0008771E00083B
:101DDC00771E0008771E0008771E0008771E000883
:101DEC00771E0008771E0008771E0008771E000873
:101DFC00771E0008771E0008771E0008771E000863
:101E0C00251E0008391E0008764A934213D02CE098
:101E1C003B68DB683B6229E03B68DB6804333B6270
:101E2C0024E03B68DB6808333B621FE03B68DB68FF
:101E3C000C333B621AE03B689B68002B02D10423F5
:101E4C003B6213E03B689B68012B05D108233B6286
:101E5C007B68FA691A6109E008233B627B68FA69BE
:101E6C005A6103E000233B6200E000BFBB69FF2B1B
:101E7C0001D87B6801E07B6804337B61BB69FF2B75
:101E8C0002D87B6A9B0002E07B6A083B9B003B61AB
:101E9C007B691A680F213B6901FA03F3DB431A4093
:101EAC00396A3B6901FA03F31A437B691A603B6890
:101EBC005B6803F08053002B00F0A9804A4B9B69B0
:101ECC00494A43F001039361474B9B6903F00103BB
:101EDC00BB60BB68454A7B6A9B08023352F82330CF
:101EEC00FB607B6A03F003039B000F2202FA03F3EF
:101EFC00DB43FA681340FB607B683D4A93420DD08C
:101F0C007B683C4A934207D07B683B4A934201D1A1
:101F1C00022304E0032302E0012300E000237A6A99
:101F2C0002F0030292009340FA681343FB602F49BE
:101F3C007B6A9B080233FA6841F823203B685B6894
:101F4C0003F48013002B06D02C4B9A682B49BB69E9
:101F5C0013438B6006E0294B9A68BB69DB43274926
:101F6C0013408B603B685B6803F40013002B06D0B6
:101F7C00224BDA682149BB691343CB6006E01F4B47
:101F8C00DA68BB69DB431D491340CB603B685B6877
:101F9C0003F40033002B06D0184B5A681749BB6961
:101FAC0013434B6006E0154B5A68BB69DB4313497E
:101FBC0013404B603B685B6803F48033002B1FD0ED
:101FCC000E4B1A680D49BB6913430B601FE000BF31
:101FDC00000032100000311000002210000021100F
:101FEC00000012100000111000100240000001400F
:101FFC0000080140000C01400010014000040140A9
:10200C000B4B1A68BB69DB43094913400B607B6AB5
:10201C0001337B623B681A687B6A22FA03F3002B5C
:10202C007FF496AE00BF00BF2C37BD4680BC704716
:10203C000004014080B485B000AF78600B467B8013
:10204C007B689A687B881340002B02D00123FB73BA
:10205C0001E00023FB73FB7B18461437BD4680BCA4
:10206C00704780B483B000AF78600B467B8013461A
:10207C007B707B78002B03D07A887B681A6103E035
:10208C007B881A047B681A6100BF0C37BD4680BC84
:10209C00704780B485B000AF78600B467B807B685E
:1020AC00DB68FB607A88FB6813401A04FB68D94331
:1020BC007B880B401A437B681A6100BF1437BD46FE
:1020CC0080BC704780B586B000AF78607B68002B11
:1020DC0001D1012372E27B681B6803F00103002B22
:1020EC0000F08780924B5B6803F00C03042B0CD040
:1020FC008F4B5B6803F00C03082B12D18C4B5B6885
:10210C0003F48033B3F5803F0BD1894B1B6803F488
:10211C000033002B6CD07B685B68002B68D10123EB
:10212C004CE27B685B68B3F5803F06D1804B1B6843
:10213C007F4A43F4803313602EE07B685B68002B8E
:10214C000CD17B4B1B687A4A23F480331360784B99
:10215C001B68774A23F4802313601DE07B685B685F
:10216C00B3F5A02F0CD1724B1B68714A43F480233A
:10217C0013606F4B1B686E4A43F4803313600BE0A3
:10218C006B4B1B686A4A23F480331360684B1B68E3
:10219C00674A23F4802313607B685B68002B13D0A1
:1021AC00FFF7B4FC386108E0FFF7B0FC02463B696E
:1021BC00D31A642B01D9032300E25D4B1B6803F493
:1021CC000033002BF0D014E0FFF7A0FC386108E0DE
:1021DC00FFF79CFC02463B69D31A642B01D90323FD
:1021EC00ECE1534B1B6803F40033002BF0D100E0FF
:1021FC0000BF7B681B6803F00203002B63D04C4BC1
:10220C005B6803F00C03002B0BD0494B5B6803F0AD
:10221C000C03082B1CD1464B5B6803F48033002B5A
:10222C0016D1434B1B6803F00203002B05D07B68CF
:10223C001B69012B01D00123C0E13D4B1B6823F02E
:10224C00F8027B685B69DB00394913430B603AE0A9
:10225C007B681B69002B20D0364B01221A60FFF7DC
:10226C0055FC386108E0FFF751FC02463B69D31A74
:10227C00022B01D90323A1E12D4B1B6803F00203B0
:10228C00002BF0D02A4B1B6823F0F8027B685B69AB
:10229C00DB00274913430B6015E0264B00221A6024
:1022AC00FFF734FC386108E0FFF730FC02463B696D
:1022BC00D31A022B01D9032380E11D4B1B6803F0B9
:1022CC000203002BF0D17B681B6803F00803002B82
:1022DC003AD07B689B69002B19D0174B01221A60EE
:1022EC00FFF714FC386108E0FFF710FC02463B696D
:1022FC00D31A022B01D9032360E10D4B5B6A03F067
:10230C000203002BF0D0012000F09CFA1CE00A4BD9
:10231C0000221A60FFF7FAFB38610FE0FFF7F6FBBB
:10232C0002463B69D31A022B08D9032346E100BFAE
:10233C00001002400000424280044242924B5B6A11
:10234C0003F00203002BE9D17B681B6803F0040344
:10235C00002B00F0A6800023FB758B4BDB6903F090
:10236C008053002B0DD1884BDB69874A43F0805397
:10237C00D361854BDB6903F08053BB60BB680123E1
:10238C00FB75824B1B6803F48073002B18D17F4BB9
:10239C001B687E4A43F480731360FFF7B7FB386108
:1023AC0008E0FFF7B3FB02463B69D31A642B01D953
:1023BC00032303E1754B1B6803F48073002BF0D0EF
:1023CC007B68DB68012B06D16F4B1B6A6E4A43F0AE
:1023DC00010313622DE07B68DB68002B0CD16A4B88
:1023EC001B6A694A23F001031362674B1B6A664A36
:1023FC0023F0040313621CE07B68DB68052B0CD113
:10240C00614B1B6A604A43F0040313625E4B1B6A08
:10241C005D4A43F0010313620BE05B4B1B6A5A4AA3
:10242C0023F001031362584B1B6A574A23F0040331
:10243C0013627B68DB68002B15D0FFF767FB3861F4
:10244C000AE0FFF763FB02463B69D31A41F288327C
:10245C00934201D90323B1E04B4B1B6A03F00203F7
:10246C00002BEED014E0FFF751FB38610AE0FFF7C8
:10247C004DFB02463B69D31A41F28832934201D993
:10248C0003239BE0404B1B6A03F00203002BEED1AD
:10249C00FB7D012B05D13C4BDB693B4A23F0805380
:1024AC00D3617B68DB69002B00F08780364B5B685F
:1024BC0003F00C03082B61D07B68DB69022B46D13F
:1024CC00334B00221A60FFF721FB386108E0FFF75D
:1024DC001DFB02463B69D31A022B01D903236DE085
:1024EC00294B1B6803F00073002BF0D17B681B6A2F
:1024FC00B3F5803F08D1244B5B6823F400327B6832
:10250C009B68214913434B601F4B5B6823F4741287
:10251C007B68196A7B685B6A0B431B4913434B60EE
:10252C001B4B01221A60FFF7F1FA386108E0FFF744
:10253C00EDFA02463B69D31A022B01D903233DE085
:10254C00114B1B6803F00073002BF0D035E0104BDF
:10255C0000221A60FFF7DAFA386108E0FFF7D6FAC2
:10256C0002463B69D31A022B01D9032326E0064B02
:10257C001B6803F00073002BF0D11EE07B68DB6955
:10258C00012B07D1012319E000100240007000401C
:10259C00600042420B4B5B68FB60FB6803F48032CB
:1025AC007B681B6A9A4206D1FB6803F470127B6845
:1025BC005B6A9A4201D0012300E0002318461837C9
:1025CC00BD4680BD0010024080B584B000AF78607D
:1025DC0039607B68002B01D10123D0E06A4B1B686A
:1025EC0003F007033A689A4210D9674B1B6823F033
:1025FC00070265493B6813430B60634B1B6803F090
:10260C0007033A689A4201D00123B8E07B681B6843
:10261C0003F00203002B20D07B681B6803F004033B
:10262C00002B05D0594B5B68584A43F4E063536068
:10263C007B681B6803F00803002B05D0534B5B68C9
:10264C00524A43F460535360504B5B6823F0F002E2
:10265C007B689B684D4913434B607B681B6803F098
:10266C000103002B40D07B685B68012B07D1474BE3
:10267C001B6803F40033002B15D101237FE07B682A
:10268C005B68022B07D1414B1B6803F00073002BD6
:10269C0009D1012373E03D4B1B6803F00203002BAF
:1026AC0001D101236BE0394B5B6823F003027B689B
:1026BC005B68364913434B60FFF728FAF8600AE071
:1026CC00FFF724FA0246FB68D31A41F28832934290
:1026DC0001D9032353E02D4B5B6803F00C027B689C
:1026EC005B689B009A42EBD1274B1B6803F00703F6
:1026FC003A689A4210D2244B1B6823F007022249F5
:10270C003B6813430B60204B1B6803F007033A68CC
:10271C009A4201D0012332E07B681B6803F004036A
:10272C00002B08D0194B5B6823F4E0627B68DB68F4
:10273C00164913434B607B681B6803F00803002B9E
:10274C0009D0124B5B6823F460527B681B69DB0079
:10275C000E4913434B6000F021F802460B4B5B68AB
:10276C001B0903F00F030A49CB5C22FA03F3094A55
:10277C001360094B1B681846FFF786F900231846AF
:10278C001037BD4680BD00BF002002400010024043
:10279C00F0320008440000206000002080B487B0B4
:1027AC0000AF0023FB600023BB6000237B61002390
:1027BC007B6000233B611E4B5B68FB60FB6803F096
:1027CC000C03042B02D0082B03D027E0194B3B61E0
:1027DC0027E0FB689B0C03F00F03174AD35C7B606C
:1027EC00FB6803F48033002B10D0114B5B685B0C3F
:1027FC0003F00103114AD35CBB607B680D4A03FBF9
:10280C0002F2BB68B2FBF3F37B6104E07B680C4A19
:10281C0002FB03F37B617B693B6102E0054B3B618F
:10282C0000BF3B6918461C37BD4680BC704700BFD3
:10283C000010024000127A00003300081033000828
:10284C0000093D0080B485B000AF78600A4B1B686E
:10285C000A4AA2FB03235B0A7A6802FB03F3FB60C0
:10286C0000BFFB685A1EFA60002BF9D100BF00BFF5
:10287C001437BD4680BC704744000020D34D621015
:10288C0080B582B000AF78607B68002B01D101234A
:10289C0041E07B6893F83D30DBB2002B06D17B68BE
:1028AC00002283F83C207868FEF730FF7B68022218
:1028BC0083F83D207B681A687B6804331946104600
:1028CC0000F056FA7B68012283F846207B680122CF
:1028DC0083F83E207B68012283F83F207B6801222D
:1028EC0083F840207B68012283F841207B68012219
:1028FC0083F842207B68012283F843207B68012205
:10290C0083F844207B68012283F845207B680122F0
:10291C0083F83D20002318460837BD4680BD0000D3
:10292C0080B485B000AF78607B6893F83D30DBB243
:10293C00012B01D0012335E07B68022283F83D2076
:10294C007B681B68DA687B681B6842F00102DA60FE
:10295C007B681B68164A934209D07B681B68B3F1ED
:10296C00804F04D07B681B68124A934211D17B685C
:10297C001B689B6803F00703FB60FB68062B10D0F9
:10298C007B681B681A687B681B6842F001021A603E
:10299C0007E07B681B681A687B681B6842F00102C1
:1029AC001A60002318461437BD4680BC704700BF20
:1029BC00002C01400004004080B584B000AF78606A
:1029CC007B681B68DB68FB607B681B681B69BB60F2
:1029DC00BB6803F00203002B20D0FB6803F002035A
:1029EC00002B1BD07B681B686FF002021A617B689E
:1029FC0001221A777B681B689B6903F00303002B89
:102A0C0003D0786800F098F905E0786800F08BF94D
:102A1C00786800F09AF97B6800221A77BB6803F09B
:102A2C000403002B20D0FB6803F00403002B1BD005
:102A3C007B681B686FF004021A617B6802221A77AC
:102A4C007B681B689B6903F44073002B03D0786888
:102A5C0000F072F905E0786800F065F9786800F02C
:102A6C0074F97B6800221A77BB6803F00803002B0B
:102A7C0020D0FB6803F00803002B1BD07B681B687D
:102A8C006FF008021A617B6804221A777B681B6856
:102A9C00DB6903F00303002B03D0786800F04CF9DA
:102AAC0005E0786800F03FF9786800F04EF97B6833
:102ABC0000221A77BB6803F01003002B20D0FB68B0
:102ACC0003F01003002B1BD07B681B686FF0100207
:102ADC001A617B6808221A777B681B68DB6903F430
:102AEC004073002B03D0786800F026F905E0786875
:102AFC0000F019F9786800F028F97B6800221A7741
:102B0C00BB6803F00103002B0CD0FB6803F001033E
:102B1C00002B07D07B681B686FF001021A61786884
:102B2C00FEF76EFCBB6803F08003002B0CD0FB6837
:102B3C0003F08003002B07D07B681B686FF08002CA
:102B4C001A61786800F06FFABB6803F04003002B41
:102B5C000CD0FB6803F04003002B07D07B681B688C
:102B6C006FF040021A61786800F0F8F8BB6803F067
:102B7C002003002B0CD0FB6803F02003002B07D0A4
:102B8C007B681B686FF020021A61786800F042FACB
:102B9C0000BF1037BD4680BD80B584B000AF7860F3
:102BAC0039600023FB737B6893F83C30012B01D117
:102BBC000223B4E07B68012283F83C207B6802226C
:102BCC0083F83D207B681B689B68BB60BB6823F067
:102BDC007703BB60BB6823F47F43BB607B681B68D7
:102BEC00BA689A603B681B68B3F5005F3ED0B3F5DA
:102BFC00005F00F28780B3F5805F00F08680B3F54C
:102C0C00805F7FD8702B1AD0702B7BD8602B50D064
:102C1C00602B77D8502B3CD0502B73D8402B58D0EE
:102C2C00402B6FD8302B64D0302B6BD8202B60D03E
:102C3C00202B67D8002B5CD0102B5AD062E07B681D
:102C4C0018683B6899683B685A683B68DB6800F019
:102C5C006AF97B681B689B68BB60BB6843F07703B1
:102C6C00BB607B681B68BA689A604FE07B68186829
:102C7C003B6899683B685A683B68DB6800F053F91D
:102C8C007B681B689A687B681B6842F480429A6078
:102C9C003CE07B6818683B6859683B68DB681A46FF
:102CAC0000F0CAF87B681B685021184600F021F927
:102CBC002CE07B6818683B6859683B68DB681A46EF
:102CCC0000F0E8F87B681B686021184600F011F9E9
:102CDC001CE07B6818683B6859683B68DB681A46DF
:102CEC0000F0AAF87B681B684021184600F001F937
:102CFC000CE07B681A683B681B681946104600F0AC
:102D0C00F8F803E00123FB7300E000BF7B680122AD
:102D1C0083F83D207B68002283F83C20FB7B18461F
:102D2C001037BD4680BD80B483B000AF786000BF63
:102D3C000C37BD4680BC704780B483B000AF786060
:102D4C0000BF0C37BD4680BC704780B483B000AF69
:102D5C00786000BF0C37BD4680BC704780B483B030
:102D6C0000AF786000BF0C37BD4680BC70470000D8
:102D7C0080B485B000AF786039607B681B68FB60FD
:102D8C007B682B4A934207D07B68B3F1804F03D00A
:102D9C007B68284A934208D1FB6823F07003FB60E0
:102DAC003B685B68FA681343FB607B68204A93427C
:102DBC0007D07B68B3F1804F03D07B681D4A9342E8
:102DCC0008D1FB6823F44073FB603B68DB68FA684E
:102DDC001343FB60FB6823F080023B685B69134381
:102DEC00FB607B68FA681A603B689A687B68DA62F9
:102DFC003B681A687B689A627B680D4A934203D1E0
:102E0C003B681A697B681A637B6801225A617B688C
:102E1C001B6903F00103002B05D07B681B6923F0B1
:102E2C0001027B681A6100BF1437BD4680BC704735
:102E3C00002C01400004004080B487B000AFF86063
:102E4C00B9607A60FB681B6A7B61FB681B6A23F0C4
:102E5C000102FB681A62FB689B693B613B6923F0CA
:102E6C00F0033B617B681B013A6913433B617B694F
:102E7C0023F00A037B617A69BB6813437B61FB68AF
:102E8C003A699A61FB687A691A6200BF1C37BD46C1
:102E9C0080BC704780B487B000AFF860B9607A60CE
:102EAC00FB681B6A7B61FB681B6A23F01002FB68E2
:102EBC001A62FB689B693B613B6923F470433B617D
:102ECC007B681B033A6913433B617B6923F0A003C6
:102EDC007B61BB681B017A6913437B61FB683A69B0
:102EEC009A61FB687A691A6200BF1C37BD4680BCC8
:102EFC00704780B485B000AF786039607B689B68A0
:102F0C00FB60FB6823F07003FB603A68FB681343BB
:102F1C0043F00703FB607B68FA689A6000BF1437C4
:102F2C00BD4680BC704780B487B000AFF860B96014
:102F3C007A603B60FB689B687B617B6923F47F4311
:102F4C007B613B681A027B681A43BB6813437A693E
:102F5C0013437B61FB687A699A6000BF1C37BD46DE
:102F6C0080BC704780B485B000AF786039607B68F6
:102F7C0093F83C30012B01D1022341E07B68012204
:102F8C0083F83C207B68022283F83D207B681B6819
:102F9C005B68FB607B681B689B68BB60FB6823F00D
:102FAC007003FB603B681B68FA681343FB607B682B
:102FBC001B68FA685A607B681B68144A934209D0F4
:102FCC007B681B68B3F1804F04D07B681B68104A88
:102FDC0093420CD1BB6823F08003BB603B685B68F9
:102FEC00BA681343BB607B681B68BA689A607B68DD
:102FFC00012283F83D207B68002283F83C200023CB
:10300C0018461437BD4680BC704700BF002C0140E9
:10301C000004004080B483B000AF786000BF0C3770
:10302C00BD4680BC704780B483B000AF786000BFF1
:10303C000C37BD4680BC7047024B0146186800F047
:10304C002DB800BF68000020024B0146186800F044
:10305C00F5B800BF6800002070B50F4E0C46316803
:10306C00054611B900F0AEF830602146284600F054
:10307C00A9F8431C03D14FF0FF34204670BDC41C8B
:10308C0024F00304A042F8D0211A284600F09AF844
:10309C000130F2D1EFE700BF640100202DE9F843C5
:1030AC00CD1C25F0030508350C2D38BF0C25002D43
:1030BC00064601DBA94204D90C2333600020BDE88D
:1030CC00F883DFF8D48000F069F8D8F800301C469B
:1030DC0044BB29463046FFF7BFFF431C044658D17A
:1030EC00D8F800402746002F43D1002C4BD0236842
:1030FC003946304604EB030900F064F8814542D1AF
:10310C00216830466D1A2946FFF7A6FF01303AD0E8
:10311C0023682B442360D8F800305A6862BBC8F887
:10312C0000700FE02268521B20D40B2A17D96119AA
:10313C00A342256018BF5960636808BFC8F8001027
:10314C0062514B60304600F02FF804F10B00231D48
:10315C0020F00700C21A1CBF1B1AA350AFE762680D
:10316C00A3420CBFC8F800205A60EBE72346646802
:10317C00AEE73C467F68B6E71A465B68A342FBD1D4
:10318C0000235360DEE70C233046336000F00CF86C
:10319C0094E70560D6E700BF68010020014800F005
:1031AC004BB800BFA8020020014800F046B800BF91
:1031BC00A802002003460244934200D1704703F852
:1031CC00011BF9E738B50023054D044608462B6072
:1031DC00FEF7F6FA431C02D12B6803B1236038BD0D
:1031EC00A4020020014B1868704700BF6800002043
:1031FC0070B500260C4D0D4C641BA410A64209D1D1
:10320C0000F064F800260A4D0A4C641BA410A64278
:10321C0005D170BD55F8043B98470136EEE755F8DB
:10322C00043B98470136F2E71433000814330008C6
:10323C0014330008183300087047704738B505463A
:10324C00002940D051F8043C0C1F002BB8BFE418E7
:10325C00FFF7A4FF1C4A136833B963601460284657
:10326C00BDE83840FFF7A0BFA34208D92068211859
:10327C008B4201BF19685B6809182160EDE71A469B
:10328C005B680BB1A342FAD911685018A0420BD15C
:10329C0020680144501883421160E0D118685B68C3
:1032AC00084410605360DAE702D90C232B60D6E790
:1032BC00206821188B4201BF19685B6809182160CE
:1032CC0063605460CBE738BD68010020F8B500BFDF
:1032DC00F8BC08BC9E467047F8B500BFF8BC08BCEB
:0432EC009E46704743
:1032F00000000000000000000102030406070809A6
:1033000002030405060708090A0B0C0D0E0F101026
:0433100001020000B6
:04331400310100087B
:043318000D0100089B
:10331C000200000005000000020000000300000095
:10332C000500000002000000030000000500000082
:10333C000200000003000000050000000200000075
:10334C000300000001010100010101000101010065
:10335C00010101000024F4000A000000010000003B
:10336C00010000000100000001000000010000004D
:10337C0010000000010000006C00002000000000A4
:10338C006C010020D40100203C0200200000000051
:10339C000000000000000000000000000000000021
:1033AC000000000000000000000000000000000011
:1033BC000000000000000000000000000000000001
:0833CC000000000000000000F9
:0400000508001A1DB8
:00000001FF
